:020000040800F2
:1000000000000120C5020008CB020008CF02000852
:1000100041030008450300088D03000800000000AC
:10002000000000000000000000000000D5030008F0
:10003000D903000800000000DD030008E103000808
:10004000F1030008F1030008F1030008F1030008C0
:10005000F1030008F10300086D100008F103000827
:10006000F1030008F1030008F1030008F1030008A0
:10007000F1030008F1030008F1030008F103000890
:10008000F1030008F1030008F1030008000000007C
:10009000000000000000000000000000F103000864
:1000A000F1030008F1030008F1030008F103000860
:1000B000F1030008F1030008F1030008F103000850
:1000C000F1030008F1030008F1030008F103000840
:1000D000F1030008F1030008F1030008000000002C
:1000E000F1030008F1030008F1030008000000001C
:1000F000000000000000000000000000F103000804
:1001000000000000F1030008F1030008F1030008FB
:1001100000000000000000000000000000000000DF
:10012000F1030008F1030008F1030008F1030008DF
:10013000F1030008000000000000000000000000C3
:10014000000000000000000000000000F1030008B3
:10015000F1030008F1030008F1030008F1030008AF
:10016000F1030008F1030008000000000000000097
:10017000000000000000000000000000000000007F
:1001800000000000F1030008000000000000000073
:10019000F103000800B583B000F046FE384B394A41
:1001A0001360394A1360394900E02146384B9942BF
:1001B0000BD20A684B6801F10C0488689842F4D9A4
:1001C0001168196004330432F8E72E4B1A68314B7A
:1001D0009A4200D0FEE72C4B1A682F4B9A42F9D175
:1001E000274B2E4A13602E4A13602E4B05E0002049
:1001F000106004329342FAD80B462B4A934204D241
:10020000194651F8082B5B68F4E7244B1B6813B9B7
:10021000234B1B6803B1FEE701F09CFC694601A873
:1002200000F094FD214C224BE41AA4100025AC42AE
:1002300014DC204C204BE41AA4100025AC4213DC43
:100240000099019801F0A6FC05461C4C1C4BE41AD1
:10025000A410002C0EDC284600F04AFD144B53F885
:10026000253098470135E2E7134B53F8253098477E
:100270000135E3E7013C124B53F824309847E8E797
:10028000BABADECA0000002074000020F40300089F
:100290000C04000878563412325476987800002006
:1002A0002C0100200C0400081C0400081C04000899
:1002B0001C0400081C0400081C0400081C0400089E
:1002C0001C04000808B5FFF765FF00BEFEE71EF03E
:1002D000040F0CBFEFF30880EFF309807146414A29
:1002E00010472DE9F04182B004468846124B5E6B00
:1002F0009F6B9D6A1B6B13F0020F03D00E4BDB6AE2
:10030000002B0CDB0D4800F033FDCDF800803B46A0
:1003100032462946204600F093FD00BEFEE74BF62C
:10032000AB6100F007FE0028ECD0034B4FF0004219
:10033000DA6202B0BDE8F08100ED00E008310008AB
:1003400000BEFEE71EF0040F0CBFEFF30880EFF3D2
:1003500009807146244A10472DE9F04182B00446D5
:100360008846084B5E6B9F6B9D6A074800F000FD56
:10037000CDF800803B4632462946204600F060FD1D
:1003800000BEFEE700ED00E0183100081EF0040F8B
:100390000CBFEFF30880EFF309807146134A104752
:1003A0002DE9F04182B004468846084B5E6B9F6B96
:1003B0009D6A074800F0DCFCCDF800803B463246E1
:1003C0002946204600F03CFD00BEFEE700ED00E0BF
:1003D0002431000800BEFEE700BEFEE700BEFEE7D7
:1003E00070470000E302000859030008A103000859
:0403F00000BEFEE766
:1003F400C03300080000002078000020C03300084B
:1004040000000010000000107800002030010020DF
:080414000000001000000010C0
:1004200010B50446074B1868074BA3FB0030800942
:1004300000F090F8002221464FF0FF3000F044F821
:10044000002010BD0C000020D34D621008B50B4BEE
:100450001A6842F400721A601A6842F480621A60E4
:100460001A6842F480721A60032000F00FF80F201F
:10047000FFF7D6FF02F0E2F8002008BD003C024082
:10048000014B1868704700BF1401002010B50446E6
:10049000C31E042B0FD80A4AD36823F4E0631B045D
:1004A0001B0C240204F4E064234343F0BF6343F4D1
:1004B0000033D36010BDA421024800F04FFCEAE7EE
:1004C00000ED00E0382F000870B505460C461646D2
:1004D0000F2A25D80F2C28D81B4BDB68C3F3022327
:1004E000C3F10702042A28BF0422191D062921D9B5
:1004F000033B4FF0FF3101FA02F224EA02049C4070
:1005000001FA03F326EA03063443002D14DB240129
:10051000E4B205F1604505F5614585F8004370BD1D
:10052000BC210A4800F01AFCD4E7BD21074800F0BE
:1005300015FCD1E70023DCE705F00F052401E4B248
:10054000034B5C55EBE700BF00ED00E0382F0008DF
:1005500014ED00E00138B0F1807F0AD2064B5860FC
:10056000064AF02182F823100020986007221A60C2
:1005700070470120704700BF10E000E000ED00E090
:1005800010B50446042800D038B9042C0BD0094A11
:10059000136823F00403136010BD40F2B311064842
:1005A00000F0DCFBF1E7034A136843F00403136037
:1005B000F2E700BF10E000E0382F000830B583B04C
:1005C000044603680F2B29D8236813F0010F3DD090
:1005D0006368012B01D9052B25D1A34B9B6803F040
:1005E0000C03042B29D0A04B9B6803F00C03082BB1
:1005F0001ED022799D4B1A706368002B50D0FFF7F4
:100600003FFF0546984B1B6813F4003F1ED1FFF7D0
:1006100037FF401B6428F5D90320E3E1F521944816
:1006200000F09CFBD0E7FA21914800F097FBD4E75B
:100630008D4B5B6813F4800FDBD08B4B1B6813F47E
:10064000003F03D06368002B00F0C981236813F0DA
:10065000020F5DD0E368012B31D823691F2B34D8FA
:10066000814B9B6813F00C0F3AD07F4B9B6803F0D3
:100670000C03082B2FD0E368002B74D07D4B012294
:100680001A60FFF7FDFE0546774B1B6813F0020F5B
:100690005AD1FFF7F5FE401B0228F5D90320A1E14E
:1006A000FFF7EEFE0546704B1B6813F4003FCDD0FC
:1006B000FFF7E6FE401B6428F5D9032092E14FF4D2
:1006C00096716B4800F04AFBC7E740F22D1168486D
:1006D00000F044FBC4E7644B5B6813F4800FCAD19D
:1006E000614B1B6813F0020F04D0E368012B01D0AB
:1006F000012077E15C48036823F0F8032169F822C0
:1007000092FAA2F2B2FA82F201FA02F21343036001
:10071000236813F0080F50D06369012B35D8636943
:10072000002B38D0544B01221A60FFF7A9FE054672
:100730004D4B5B6F13F0020F3FD1FFF7A1FE401B43
:100740000228F5D903204DE14748036823F0F80358
:100750002169F82292FAA2F2B2FA82F201FA02F2C6
:1007600013430360D4E7434B00221A60FFF788FE6F
:1007700005463D4B1B6813F0020FC9D0FFF780FE02
:10078000401B0228F5D903202CE140F26D113848B6
:1007900000F0E4FAC3E7384B00221A60FFF770FE5E
:1007A0000546314B5B6F13F0020F06D0FFF768FE72
:1007B000401B0228F5D9032014E1236813F0040F2D
:1007C00060D0A368012B01D9052B1FD10023019311
:1007D000254B1A6C42F080521A641B6C03F0805354
:1007E0000193019B254A136843F480731360FFF75C
:1007F00047FE0546214B1B6813F4807F0CD1FFF7A1
:100800003FFE401B0228F5D90320EBE040F2971190
:10081000174800F0A3FAD9E7227A194B1A70A36897
:1008200083B1FFF72DFE05460F4B1B6F13F0020F30
:1008300028D1FFF725FE401B41F288339842F3D9B7
:100840000320CFE0FFF71CFE0546074B1B6F13F09C
:10085000020F17D0FFF714FE401B41F28833984275
:10086000F3D90320BEE000BF003802400238024046
:100870007C2F000800004742800E47420070004075
:1008800070380240A369022B39D8A369002B00F00D
:10089000A880564A926802F00C02082A00F0A48050
:1008A000022B40F08880E36913B1B3F5800F2CD19F
:1008B000236A3F2B2FD8636A323BB3F5BF7F30D812
:1008C000A36A022B05D0042B03D0062B01D0082BE2
:1008D0002DD1E36A043B0B2B2FD8454B00221A6025
:1008E000FFF7CEFD0546414B1B6813F0007F2AD071
:1008F000FFF7C6FD401B0228F5D9032072E04FF434
:10090000E6713C4800F02AFABFE740F2D5113948B9
:1009100000F024FACCE74FF4EB71364800F01EFAF1
:10092000C9E740F2D711334800F018FAC8E74FF48E
:10093000EC71304800F012FACBE740F2D9112D48A3
:1009400000F00CFAC9E7E369226A1343616A47F6CB
:10095000C07292FAA2F2B2FA82F201FA02F21343E0
:10096000A26A5208013A4FF4403191FAA1F1B1FA6A
:1009700081F18A401343E16A4FF0706292FAA2F269
:10098000B2FA82F201FA02F21343184A5360184B8A
:1009900001221A60FFF774FD0446144B1B6813F024
:1009A000007F06D1FFF76CFD001B0228F5D903205C
:1009B00018E0002016E00E4B00221A60FFF760FDE1
:1009C00004460A4B1B6813F0007F06D0FFF758FD62
:1009D000001B0228F5D9032004E0002002E00120DA
:1009E00000E0002003B030BD0120FBE700380240EA
:1009F000600047427C2F0008214B9B6803F00C03EA
:100A0000042B3AD0082B01D01E4870471C4B586865
:100A100000F03F005B6813F4800F1ED01A4AB2FB4F
:100A2000F0F2174B586847F6C073184093FAA3F3D7
:100A3000B3FA83F3D84000FB02F0114B5B6803F478
:100A400040334FF4403292FAA2F2B2FA82F2D3402B
:100A500001335B00B0FBF3F070470A4AB2FBF0F2DF
:100A6000074B586847F6C073184093FAA3F3B3FADC
:100A700083F3D84000FB02F0DFE70348704700BF74
:100A8000003802400024F40040787D0170B504462F
:100A90000D460368013B0E2B11D8072D15D88C4B42
:100AA0001B6803F00F03AB4215D2EBB2884A1370F8
:100AB000136803F00F03AB420DD0012070BD40F26C
:100AC0003721844800F04AF9E7E74FF40E71814876
:100AD00000F044F9E3E7236813F0020F18D0A3688D
:100AE0007BB1802B0DD0902B0BD0A02B09D0B02B3D
:100AF00007D0C02B05D0D02B03D0E02B01D0F02B9A
:100B000037D1754A936823F0F003A1680B439360D3
:100B1000236813F0010F73D06368032B2FD8636829
:100B2000012B32D09A1E012A36D96B4A126812F074
:100B3000020F00F0CA8068498A6822F0030213435A
:100B40008B60FFF79DFC06466368012B2BD0022BC0
:100B500038D0032B45D0604B9B6813F00C0F4FD05F
:100B6000FFF78EFC801B41F288339842F3D90320B3
:100B7000A4E740F24F21574800F0F0F8C1E740F2F7
:100B80005621544800F0EAF8C9E7534A126812F4B3
:100B9000003FD0D1012091E74F4A126812F0007F48
:100BA000C9D101208AE74C4B9B6803F00C03042B4E
:100BB00026D0FFF765FC801B41F288339842F2D9BA
:100BC00003207BE7444B9B6803F00C03082B17D0F2
:100BD000FFF756FC801B41F288339842F2D903207C
:100BE0006CE73D4B9B6803F00C030C2B08D0FFF720
:100BF00047FC801B41F288339842F2D903205DE71D
:100C0000334B1B6803F00F03AB4209D9EAB2304BF8
:100C10001A701B6803F00F03AB4201D001204DE7AF
:100C2000236813F0040F14D0E3685BB1B3F5805F61
:100C300008D0B3F5A05F05D0B3F5C05F02D0B3F51F
:100C4000E05F36D1244A936823F4E053E1680B4314
:100C50009360236813F0080F15D023695BB1B3F5D7
:100C6000805F08D0B3F5A05F05D0B3F5C05F02D0B8
:100C7000B3F5E05F23D1184A936823F460432169F8
:100C800043EAC1039360FFF7B7FE134B9B6803F081
:100C9000F003F02292FAA2F2B2FA82F2D3400F4AA3
:100CA000D35CD8400E4B18600F20FFF7B9FB002033
:100CB00004E74FF42D71074800F050F8C2E740F206
:100CC000BB21044800F04AF8D5E70120F6E600BF52
:100CD000003C02407C2F0008003802406C2F0008C6
:100CE0000C000020014B1868704700BF0C0000206A
:100CF000FEE7000008B5034800F052F80120FFF7B6
:100D0000F7FF00BFAC2F000808B503460C4A126875
:100D10005AB10B4A1068033323F003030344094A12
:100D2000934206D8064A136008BD054A0649116079
:100D3000EFE701F085FC0C2303604FF0FF30F3E791
:100D40007C00002000FC0020300100200123036013
:100D5000014B0B60704700BF0400002008B50A4635
:100D60000146024800F004F8FFF7C4FFC02F000856
:100D70000FB400B583B004AB53F8042B019380216A
:100D8000064801F097FC002803DD0146034800F007
:100D900047F803B05DF804EB04B07047840000200E
:100DA00010B5044601F052FC0146204600F038F828
:100DB0000121024800F034F810BD00BF8430000863
:100DC0002DE9F04385B004460F4643560BB10E465D
:100DD0001EE0042528462146ABBE0446384605B031
:100DE000BDE8F08314F9011B04AA1A4402F8101C90
:100DF0000133AB42F6D304AA1344002203F8102CAB
:100E00004FF00408E94640464946ABBE8046761B93
:100E1000002EE3D03546102E28BF10250023E8E72A
:100E200008B5FFF7CDFF08BD08B500F093F8024AFA
:100E3000024B9A6008BD00BF0000000800ED00E012
:100E4000F8B504460D4617461E462748FFF790FFA3
:100E500021682648FFF78CFF61682548FFF788FF67
:100E6000A1682448FFF784FFE1682348FFF780FF6B
:100E700021692248FFF77CFF61692148FFF778FF6D
:100E8000A1692048FFF774FFE1691F48FFF770FF71
:100E90001E48FFF76DFF29461D48FFF769FF1D4CEF
:100EA000E16A1D48FFF764FF216B1C48FFF760FFF4
:100EB000E16B1B48FFF75CFF15F0800F0AD115F4BA
:100EC000004F0CD11748FFF753FF06991648FFF75C
:100ED0004FFFF8BD39461548FFF74AFFEFE73146A7
:100EE0001348FFF745FFEDE7EC2F0008FC2F000843
:100EF0000C3000081C3000082C3000083C30000882
:100F00004C3000085C3000086C3000087C30000871
:100F10008830000800ED00E098300008A830000894
:100F2000B8300008E8300008F0300008C830000889
:100F3000D830000883691A888A4201D0002070479F
:100F40000268033A012A03D8023383610120704703
:100F5000002070470C4B1A6842F001021A60002111
:100F600099601A6822F0847222F480321A60074A6B
:100F70005A601A6822F480221A60D960044B4FF03C
:100F800000629A60704700BF0038024010300024B1
:100F900000ED00E0224B9B6803F00C03042B14D0FF
:100FA000082B16D01BB11F4B1F4A1A6002E01D4BC5
:100FB0001D4A1A601A4B9B68C3F303131B4AD15C8A
:100FC000184A1368CB4013607047164B184A1A60D2
:100FD000F0E7134B5A685B6803F03F0312F4800F8D
:100FE00013D0134AB2FBF3F20D4B5B68C3F38813C3
:100FF00003FB02F30A4A5268C2F301420132520073
:10100000B3FBF2F3074A1360D4E7074AB2FBF3F2EB
:10101000034B5B68C3F3881303FB02F3EAE700BFEB
:10102000003802400C0000200024F4003431000895
:1010300040787D010C4B9A6842F001029A605A6830
:1010400022F002025A605A6822F480725A605A688A
:1010500022F400625A609A6822F400629A609A68E8
:1010600022F002029A6070470020014008B5024B4E
:101070001B68984708BD00BF04010020022842D821
:101080000F2942D8032A42D8022807D010B40128D9
:101090001BD050B1022827D0012014E0A1F10D038C
:1010A000DBB2022BF2D9002070471A4B18684900B6
:1010B00003248C4020EA04001860186802FA01F149
:1010C00001431960012010BC7047134B1868490098
:1010D00003248C4020EA04001860186802FA01F129
:1010E000014319600120EEE70C4B18684900032406
:1010F0008C4020EA04001860186802FA01F10143EC
:1011000019600120DFE700207047002070470020B1
:10111000704700BF00000240000402400008024087
:1011200002283FD80F293FD8012A01D90020704753
:10113000022807D030B4012819D050B1022823D09A
:10114000012012E0A1F10D03DBB2022BF2D9002045
:101150007047164B5C68012000FA01F524EA05048B
:101160005C605C688A4022435A6030BC7047104B18
:101170005C68012000FA01F524EA05045C605C6803
:101180008A4022435A60F0E70A4B5C68012000FA6B
:1011900001F524EA05045C605C6802FA01F1214370
:1011A0005960E2E7002070470020704700000240CD
:1011B0000004024000080240022842D80F2942D809
:1011C000032A42D8022807D010B401281BD050B1FE
:1011D000022827D0012014E0A1F10D03DBB2022B7D
:1011E000F2D9002070471A4B9868490003248C40BC
:1011F00020EA04009860986802FA01F101439960BE
:10120000012010BC7047134B9868490003248C40A0
:1012100020EA04009860986802FA01F1014399609D
:101220000120EEE70C4B9868490003248C4020EA2B
:1012300004009860986802FA01F101439960012066
:10124000DFE700207047002070470020704700BF94
:10125000000002400004024000080240022842D878
:101260000F2942D8022A42D8022807D010B40128F8
:101270001BD050B1022827D0012014E0A1F10D03AA
:10128000DBB2022BF2D9002070471A4BD868490014
:1012900003248C4020EA0400D860D86802FA01F1E7
:1012A0000143D960012010BC7047134BD868490036
:1012B00003248C4020EA0400D860D86802FA01F1C7
:1012C0000143D9600120EEE70C4BD86849000324A4
:1012D0008C4020EA0400D860D86802FA01F101438A
:1012E000D9600120DFE70020704700207047002010
:1012F000704700BF000002400004024000080240A6
:1013000002283FD80F293FD8012A01D90020704771
:10131000022807D030B4012819D050B1022823D0B8
:10132000012012E0A1F10D03DBB2022BF2D9002063
:101330007047164B5C69012000FA01F524EA0504A8
:101340005C615C698A4022435A6130BC7047104B33
:101350005C69012000FA01F524EA05045C615C691E
:101360008A4022435A61F0E70A4B5C69012000FA87
:1013700001F524EA05045C615C6902FA01F121438C
:101380005961E2E7002070470020704700000240EA
:10139000000402400008024002282CD80F292CD853
:1013A000022806D0012814D050B102281AD00120FA
:1013B0007047A1F10D03DBB2022BF3D90020704777
:1013C0000F4B1B6923FA01F101F00101117001209B
:1013D00070470C4B1B6923FA01F101F001011170F8
:1013E00001207047084B1B6923FA01F101F001014C
:1013F000117001207047002070470020704700BF27
:1014000000000240000402400008024002287BD88D
:101410000F297BD80F2A7BD8022808D010B40128C6
:101420002ED058B102284DD0012010BC7047A1F138
:101430000D03DBB2022BF1D90020704707290ED82B
:10144000344C236A89000F20884023EA000323627A
:10145000236A02FA01F1194321620120E5E72D4BCD
:101460005C6A01F0070080000F21814024EA01013D
:101470005962596A02FA00F0084358620120D4E721
:1014800007290ED8244C236A89000F20884023EABC
:1014900000032362236A02FA01F119432162012049
:1014A000C3E71D48446A01F007039B000F219940E0
:1014B00024EA01014162416A02FA03F30B434362E9
:1014C0000120B2E7072910D9144B586A01F007012F
:1014D00089000F248C4020EA04005862586A02FAFE
:1014E00001F10143596201209FE70C4B186A890002
:1014F0000F248C4020EA04001862186A02FA01F1F5
:1015000001431962012090E70020704700207047D6
:101510000020704700000240000402400008024022
:1015200030B583B0284B93E8030002AB03E9030016
:1015300000240FE002AB234413F8085C0022294684
:101540000120FFF79BFD012229461046FFF786FE8A
:101550000134E4B2032CEDD9042414E002AB23449B
:1015600013F8085C012229461046FFF787FD002288
:1015700029460120FFF720FE002229460120FFF71F
:10158000CFFD0134E4B2072CE8D9042409E002AB12
:101590002344012213F8081C1046FFF7B1FE013462
:1015A000E4B2072CF3D9002409E002AB2344012262
:1015B00013F8081C1046FFF7A3FE0134E4B2032C15
:1015C000F3D9002003B030BD443100082DE9F047C5
:1015D00088B08246FF2303702D4B9A680692DA6822
:1015E000059201AC10330FCB84E80F0000F0FEF938
:1015F00000263AE00DF11F0229460120FFF7CCFE3C
:101600009DF81F30002BF5D001203DE00134E4B2FD
:10161000032C23D808AB234413F8085C0DF11F02F8
:1016200029460120FFF7B8FE9DF81F30002BEDD1B1
:101630000A2000F0FBF90DF11F0229460120FFF7F7
:10164000ABFE9DF81F30002BE0D108AB03EB840705
:10165000B94419F81C3C8AF80030D1E70122414610
:101660001046FFF74DFE0136F6B2032E0BD8B146F9
:1016700008AB334413F80C8C002241460120FFF7DD
:101680003FFE0024C4E7002008B0BDE8F08700BF9B
:101690004431000830B583B005460B4B1B680193FD
:1016A00000240CE045FA04F202AB234402F00102EC
:1016B00013F8041C0020FFF723FE0134E4B2032CCE
:1016C000F0D903B030BD00BF6431000808B5012275
:1016D0000A210020FFF714FE00F088F9012000F035
:1016E000A5F900220A211046FFF70AFE08BD08B539
:1016F000012208210020FFF7C1FC0022082110462A
:10170000FFF75AFD002208211046FFF709FD0122CC
:1017100009210020FFF7B2FC002209211046FFF743
:101720004BFD002209211046FFF7FAFC01220A2195
:101730000020FFF7A3FC00220A211046FFF73CFD22
:1017400000220A211046FFF7EBFC012204210020B1
:10175000FFF794FC002204211046FFF72DFD002224
:1017600004211046FFF7DCFC012205210020FFF7D1
:1017700085FC002205211046FFF71EFD00220521F1
:101780001046FFF7CDFC012206210020FFF776FC72
:10179000002206211046FFF70FFD00220621104609
:1017A000FFF7BEFC012207210020FFF767FC0022A3
:1017B00007211046FFF700FD002207211046FFF722
:1017C000AFFC012008BD10B50446002208211046D8
:1017D000FFF796FD002209211046FFF791FD200931
:1017E000FFF758FFFFF772FF2046FFF753FFFFF7A1
:1017F0006DFF012010BD08B500F0F8F80120FFF7DB
:10180000E2FF022000F012F908BD08B500F0EEF882
:10181000282000F00BF9FFF76AFF282000F006F9F6
:101820000220FFF737FFFFF751FF0220FFF732FFDB
:10183000FFF74CFF0C20FFF72DFFFFF747FF0F20AE
:10184000FFF7C1FFFFF7D7FF012008BD10B5044621
:10185000012208210020FFF753FD00220921104634
:10186000FFF74EFD2009FFF715FFFFF72FFF20467A
:10187000FFF710FFFFF72AFF012010BD18B138B5A0
:101880000546002406E003207047C0B2FFF7DEFFE4
:101890000134E4B228570028F7D1012038BD0000F8
:1018A00010B5041E01DB002314E02D20FFF7CEFF4E
:1018B0006442F8E703EB83035900114A82FB0432C8
:1018C000E317C3EBA203184603EB83035A00A31AE2
:1018D0000B440446002CEDD10A48A0FB0320C008AD
:1018E000044600EB80004200981AC0B23030C0B20B
:1018F000FFF7ACFF2346002CEED1012010BD00BF46
:1019000067666666CDCCCCCC012901D90220704730
:1019100008B58901C9B2084460F07F00C0B2FFF782
:1019200052FF012008BD38B50546002404E0102010
:10193000FFF749FF0134E4B2AC42F8D32020FFF7AF
:1019400085FF1020FFF73FFF38BD00000F4B9A685E
:1019500022F480629A609A6822F400629A609A681F
:1019600042F480529A609A6822F001029A609A6862
:1019700022F002029A601A6842F001021A60034BD8
:101980001B6813F0020FFAD0704700BF0038024006
:10199000032825D8032825D8DFE800F0020A121A08
:1019A000114A136B012000FA01F1194311637047CA
:1019B0000D4A536B012000FA01F11943516370473E
:1019C000094A136C012000FA01F1194311647047B0
:1019D000054A536C012000FA01F119435164704724
:1019E000022070470120704700380240044B1A68FB
:1019F00042F004021A601A6822F002021A6070476C
:101A000010E000E0044B586000229A601A6842F02F
:101A100001021A60704700BF10E000E0024B186836
:101A2000C0F30040704700BF10E000E008B5084A6E
:101A3000136823F00203136042F6E06303FB00F037
:101A4000FFF7E0FFFFF7EAFF0028FBD008BD00BF6B
:101A500010E000E0134B0022DA6040F271229A603D
:101A6000DA6842F40042DA60DA6822F48052DA601E
:101A7000DA6822F48062DA601A6922F480521A610C
:101A80001A6922F400521A61DA6842F00802DA6038
:101A9000DA6842F00402DA60DA6842F40052DA608E
:101AA000704700BF00440040034B5860024B1B6866
:101AB00013F0400FFAD070470044004070B594B066
:101AC00000240194204B1A6C42F080521A641B6C63
:101AD00003F080530193019B02941C4B1A6842F45B
:101AE00040421A601B6803F440430293029B0123A7
:101AF000089309934FF480030F93192310934FF425
:101B0000A8731193042612960723139302250E95AA
:101B100008A8FEF753FD0F230393049505944FF493
:101B2000805306930794294603A8FEF7AFFFFFF7FB
:101B3000D9F8074BA3FB00308009FEF70BFD3046B8
:101B4000FEF71EFD14B070BD00380240007000406A
:101B5000D34D621008B5FEF779FCFFF7AFFFFFF732
:101B600019FA08BD9A4203D00020704700200CE00B
:101B7000002393420BD230B4C55CCC5CA542F5D1B6
:101B80000133DBB29342F7D3012030BC7047012010
:101B9000704700002DE9F04F89B0FF238DF81F300A
:101BA000FFF7D4FE00210846FFF7F2FE08210320CC
:101BB000FFF7EEFE032200210846FFF75FFA01213E
:101BC0000020FFF7E5FE11210220FFF7E1FE0821CA
:101BD0000320FFF7DDFE032200210846FFF74EFA3F
:101BE000022211460020FFF749FA022203210020B9
:101BF000FFF744FA072202210020FFF707FC072223
:101C000003210020FFF702FC012211460020FFF70C
:101C100035FA002201211046FFF7CEFA00220121F9
:101C20001046FFF77DFAFFF7F0FDFFF713FFFFF710
:101C300077FCFFF7FFF9C448FFF720FE01210020E1
:101C4000FFF762FEC148FFF719FE4FF47A70FFF705
:101C5000EDFEFFF7D0FDBE48FFF710FE012100208A
:101C6000FFF752FE26E0FFF7C6FDBA48FFF706FE73
:101C70004FF47A70FFF7DAFEFFF7BDFDB648FFF7C5
:101C8000FDFD01210020FFF73FFE93E0FFF708FE76
:101C90001420FFF7CBFEB14C01212078FFF734FE72
:101CA0002A20FFF7D3FD23789DF81F10AC4AD154AA
:101CB000013323700DF11F00FFF788FC9DF81F0012
:101CC000FF28F7D04328CED02D28DFD1A34A1378A0
:101CD000013B13700120FFF726FEEBE7FFF78BFDBA
:101CE0009C48FFF7CBFD4FF47A70FFF79FFEFFF79C
:101CF00082FD9C48FFF7C2FD01210020FFF704FE92
:101D00009948FFF7BBFD0DF11F00FFF75FFC9DF841
:101D10001F30FF2BF7D000210D20FFF7F5FD9DF8B8
:101D20001F00FFF7BDFD4FF4FA70FFF77FFE9DF82F
:101D30001F30002B52D0012BDBD10393002603244C
:101D40004EB9FFF758FD8948FFF798FD01210020A3
:101D5000FFF7DAFD039E0DF11F00FFF737FC9DF83A
:101D60001F00FF28F7D0432840F02184804B1B78C8
:101D7000804A127880498148FFF7F4FE002800F07D
:101D8000EC8300273D463E463C463EE3FFF788FD98
:101D90001420FFF74BFE774C01212078FFF7B4FDAC
:101DA0002A20FFF753FD23789DF81F10734AD15462
:101DB000013323700DF11F00FFF708FC9DF81F0091
:101DC000FF28F7D0432889D02D28DFD1694A13781E
:101DD000013B13700120FFF7A6FDEBE703931E46BE
:101DE00003244EB9FFF707FD6548FFF747FD0121C2
:101DF0000020FFF789FD01260DF11F00FFF7E6FB2C
:101E00009DF81F00FF28F7D0432840F09F825D4BCC
:101E10001B78524A12785C495148FFF7A3FE00280C
:101E200000F06A82039B98469B460193059399466E
:101E30001E469A461F461C4604933FE05348FFF750
:101E40001DFD0EE00120FFF72FFE84F00104FFF7D7
:101E5000D2FC4F48FFF712FD002CEFD14D48FFF7A1
:101E60000DFD01210020FFF74FFD4B48FFF706FD58
:101E70000DF11F00FFF7AAFB9DF81F30FF2BF7D0D5
:101E8000012BDFD0022BE2D1FFF7B5FC4348FFF76F
:101E9000F5FC01210020FFF737FD4148FFF7EEFC7C
:101EA0000DF11F00FFF792FB9DF81F30FF2BF7D0BD
:101EB000012BCCD0022B35D0032BE5D1FFF79BFCB7
:101EC0003848FFF7DBFC01210020FFF71DFD3648F5
:101ED000FFF7D4FC0DF11F00FFF778FB9DF81F30D2
:101EE000FF2BF7D0012BCFD0022B63D0032B00F0B8
:101EF000F780042BE2D17AE12448FFF7BFFC0121EF
:101F00000020FFF701FD2948FFF7B8FC0DF11F0085
:101F1000FFF75CFB9DF81F30FF2BF7D0022BB3D0EF
:101F2000012B0AD0FFF767FC2148FFF7A7FC002E22
:101F3000E2D11848FFF7A2FCE1E70420FFF7B4FD67
:101F400086F00106EEE700BF683100087C3100082A
:101F50008C3100089C310008AC31000809010020D8
:101F600028010020BC310008CC3100085C33000897
:101F70000A0100200B010020240100202001002084
:101F8000E0310008080100201C0100204832000850
:101F900034320008443200084C3200081C32000879
:101FA0002C320008F43100080832000870320008B2
:101FB000603200084D46FFF71EFCBE48FFF75EFC8E
:101FC00001210020FFF7A0FCBB48FFF757FC0DF1F3
:101FD0001F00FFF7FBFA9DF81F30FF2BF7D0012BF6
:101FE0001DD0022B42D0032B68D0042BE3D1A9468D
:101FF00064E7B248FFF742FC01210020FFF784FCB0
:10200000AF48FFF73BFC0DF11F00FFF7DFFA9DF82B
:102010001F30FF2BF7D0022BCDD0012B0AD0FFF7BA
:10202000EAFBA848FFF72AFC002FE2D1A648FFF7F9
:1020300025FCE1E70220FFF737FD87F00107EEE717
:102040009E48FFF71BFC01210020FFF75DFC9F4825
:10205000FFF714FC0DF11F00FFF7B8FA9DF81F30D1
:10206000FF2BF7D0022BA6D0012B0AD0FFF7C3FB22
:102070009748FFF703FC002DE2D19348FFF7FEFBE2
:10208000E1E70520FFF710FD85F00105EEE78B483D
:10209000FFF7F4FB01210020FFF736FC8D48FFF726
:1020A000EDFB0DF11F00FFF791FA9DF81F30FF2B9C
:1020B000F7D0022B3FF47FAF012B0BD0FFF79BFB38
:1020C0008548FFF7DBFBBBF1000FE0D17E48FFF74F
:1020D000D5FBDFE70720FFF7E7FC8BF0010BEDE70F
:1020E0005546A246059CFFF786FB7248FFF7C6FBE4
:1020F00001210020FFF708FC7848FFF7BFFB0DF136
:102100001F00FFF763FA9DF81F30FF2BF7D0012B5C
:102110001DD0022B42D0032BE5D105945446AA468C
:10212000CCE66648FFF7AAFB01210020FFF7ECFB95
:102130006348FFF7A3FB0DF11F00FFF747FA9DF877
:102140001F30FF2BF7D0022BCDD0012B0AD0FFF789
:1021500052FB6348FFF792FB002DE2D15A48FFF78C
:102160008DFBE1E70320FFF79FFC85F00105EEE71B
:102170005248FFF783FB01210020FFF7C5FB5348BE
:10218000FFF77CFB0DF11F00FFF720FA9DF81F30D1
:10219000FF2BF7D0012B0CD0022BA4D0FFF72BFB89
:1021A0005048FFF76BFB002CE2D14748FFF766FB76
:1021B000E1E70620FFF778FC84F00104EEE74248EF
:1021C000FFF75CFB01210020FFF79EFB4648FFF76D
:1021D00055FB0DF11F00FFF7F9F99DF81F50FF2D7A
:1021E000F7D0012D12D0022D4CD0032D50D0FFF787
:1021F00002FB3E48FFF742FB019B002BDFD0019B17
:10220000012BDFD12D48FFF739FBDBE70295049D59
:1022100019E00DF11F00FFF7D9F99DF81F00FF2805
:10222000F7D0432823D0FFF73BFB4FF4FA60FFF7CA
:10223000FDFB08AB43449DF81F2003F8042C08F174
:1022400001085FFA88F8002DE3D1FFF7D4FA284897
:10225000FFF714FB01210420FFF756FB4320FFF793
:10226000F5FA01210020FFF74FFB029DD1E704950D
:10227000FFF7C1FA1F48FFF701FB4FF4FA70FFF7B1
:10228000D5FBB4E70920FFF70FFC039B0193AEE7F2
:102290009DF81C3003EB83035A009DF81D301A444F
:1022A000182A3FF70BAE0820FFF7FEFB012301932E
:1022B00004E600BF1C3200088032000848320008E3
:1022C0004C32000890320008443200087032000896
:1022D000A0320008BC320008B03200082C320008DE
:1022E000CC320008DC320008FC320008EC32000876
:1022F0001033000820330008FFF77DFA013CE4B2F8
:102300000025BB4B1D70BB48FFF7B8FA01212846DA
:10231000FFF7FAFAB848FFF7B1FA2046FFF7C0FA1C
:102320004FF47A70FFF782FB002C7FF45BADFFF770
:1023300062FA012211462846FEF7E2FFAF48FFF796
:102340009DFA4FF47A70FFF771FBFEE72D2807D155
:10235000A74A1378013B13700120FFF7E4FA40E528
:10236000FFF79EFA1420FFF761FBA14D01212878A9
:10237000FFF7CAFA2A20FFF769FA2B789DF81F1099
:102380009F4AD15401332B702BE59E48FFF776FA14
:102390000EE00120FFF788FB84F00104FFF72BFA21
:1023A0009948FFF76BFA002CEFD19848FFF766FACF
:1023B00001210020FFF7A8FA9548FFF75FFA0DF119
:1023C0001F00FFF703F99DF81F30FF2BF7D0012BFB
:1023D000DFD0022BE2D1FFF70EFA8E48FFF74EFA5C
:1023E00001210020FFF790FA8B48FFF747FA0DF123
:1023F0001F00FFF7EBF89DF81F30FF2BF7D0012BE4
:10240000CCD0022B4AD0032BE5D1FFF7F4F9834857
:10241000FFF734FA01210020FFF776FA8048FFF732
:102420002DFA0DF11F00FFF7D1F89DF81F30FF2B9B
:10243000F7D0012BCFD0022BE7D1FFF7DCF975489D
:10244000FFF71CFA01210020FFF75EFA7248FFF740
:1024500015FA0DF11F00FFF7B9F89DF81F30FF2B9B
:10246000F7D0012B41D0022B66D0032BE5D1CCE76E
:102470006448FFF703FA01210020FFF745FA694895
:10248000FFF7FCF90DF11F00FFF7A0F89DF81F30D2
:10249000FF2BF7D0022B9ED0012B0AD0FFF7ABF910
:1024A0006148FFF7EBF9002DE2D15848FFF7E6F954
:1024B000E1E70420FFF7F8FA85F00105EEE751485F
:1024C000FFF7DCF901210020FFF71EFA5048FFF763
:1024D000D5F90DF11F00FFF779F89DF81F30FF2B9C
:1024E000F7D0022BA9D0012B0AD0FFF784F94F486F
:1024F000FFF7C4F9002EE2D14448FFF7BFF9E1E746
:102500000320FFF7D1FA86F00106EEE73D48FFF71A
:10251000B5F901210020FFF7F7F94248FFF7AEF9BE
:102520000DF11F00FFF752F89DF81F30FF2BF7D079
:10253000012B0CD0022B80D0FFF75DF93C48FFF750
:102540009DF9002FE2D13148FFF798F9E1E7062025
:10255000FFF7AAFA87F00107EEE7FFF74CF9013C15
:10256000E4B20025334B1D702248FFF787F90121A3
:102570002846FFF7C9F92048FFF780F92046FFF702
:102580008FF94FF47A70FFF751FA002C7FF4D9AB32
:10259000FFF731F9012211462846FEF7B1FE174830
:1025A000FFF76CF94FF47A70FFF740FAFEE72D2839
:1025B00008D1204A1378013B13700120FFF7B3F9CB
:1025C000FFF7BEBBFFF76CF91420FFF72FFA194D88
:1025D00001212878FFF798F92A20FFF737F92B789F
:1025E0009DF81F10144AD15401332B70FFF7A8BB7C
:1025F0000801002034330008443300085433000835
:102600001C0100204832000834320008443200081F
:102610004C3200081C3200082C32000870330008CD
:102620007C3300087032000860320008CC320008A9
:10263000DC3200080A01002024010020704700005D
:10264000014B1868704700BF10000020034613F8C4
:10265000012B002AFBD1181A0138704730B5141E1F
:1026600005469BB0184605DA8B232B604FF0FF30F0
:102670001BB030BD4FF40273ADF80C3014BF04F141
:10268000FF332346029305934FF6FF7300910491A5
:10269000ADF80E3002461E9B6946284600F072F8DF
:1026A000431CBCBF8B232B60002CE1D0009B00227D
:1026B0001A70DDE707B5009313460A460146034842
:1026C0000068FFF7CBFF03B05DF804FB10000020AB
:1026D0002DE9F0478E689E4282460C469046994608
:1026E00037D88A8912F4906F31D0256809696F1A3A
:1026F0006569022305EB450595FBF3F509F1010337
:102700003B449D4238BF1D46530530D5294600F055
:1027100079FB064650B90C23CAF80030A38943F070
:102720004003A3814FF0FF30BDE8F0873A462169AE
:1027300000F0F6FAA38923F4906343F08003A381A9
:10274000266165613E44ED1B2660A5604E464E4500
:1027500000D94E4632464146206800F0ECFAA368A4
:102760009B1BA36023681E4426600020DCE72A46EA
:1027700000F0A2FB06460028E2D12169504600F095
:10278000F3FAC8E72DE9F04F9DB0804603938B899B
:102790001D060C4616460FD50B696BB9402100F09B
:1027A00031FB2060206128B90C23C8F800304FF0BD
:1027B000FF30C7E0402363610023099320238DF895
:1027C000293030238DF82A304FF0010B37463D4633
:1027D00015F8013B0BB1252B3ED1B7EB060A0BD008
:1027E0005346324621464046FFF772FF013000F063
:1027F000A480099B534409933B78002B00F09D80F3
:1028000000234FF0FF32CDE90523049307938DF8A1
:1028100053301A932F46052217F8011B4F4800F03A
:102820002FFA049BD0B9D90644BF20228DF853203B
:102830001A0744BF2B228DF853202A782A2A15D054
:10284000079A2F4600200A25394611F8013B303BF4
:10285000092B4DD9B8B10FE02F46B8E73F4A801A8F
:102860000BFA00F0184304903D46D3E7039A111D7C
:1028700012680391002A01DB079204E0524243F000
:102880000203079204933B782E2B0CD17B782A2BE2
:1028900033D1039B1A1D1B680392002BB8BF4FF066
:1028A000FF33023705932E4D39780322284600F076
:1028B000E7F938B14023401B03FA00F0049B0343BF
:1028C00001370493397827488DF8281006227E1C9A
:1028D00000F0D6F9002838D0234B13BB039B0733F5
:1028E00023F0070308330393099B4B4409936DE7D7
:1028F00005FB023201200F46A6E7002301370593AE
:1029000019460A25384610F8012B303A092A03D90E
:10291000002BC8D00591C6E705FB0121012307461E
:10292000F0E703AB00932246104B04A94046AFF3F7
:102930000080B0F1FF3F8146D6D1A3895B063FF509
:1029400036AF09981DB0BDE8F08F03AB0093224667
:10295000064B04A9404600F081F8EAE78C330008F2
:10296000923300089633000800000000D1260008CA
:102970002DE9F04791461F468A680B69DDF82080F3
:102980009342B8BF1346C9F8003091F84320064679
:102990000C4612B10133C9F800302368990642BFD2
:1029A000D9F800300233C9F80030256815F0060563
:1029B00007D104F1190AE368D9F800209B1AAB4249
:1029C00028DC94F843302268003318BF01239206B4
:1029D0002DD404F1430239463046C047013020D09F
:1029E0002368E568D9F8002003F00603042B08BF2C
:1029F000AD1AA36822690CBF25EAE575002593424C
:102A0000C4BF9B1AED184FF000091A344D451AD176
:102A1000002008E00123524639463046C0470130C5
:102A200003D14FF0FF30BDE8F0870135C3E7E1186F
:102A30005A1C302081F84300224494F8451082F853
:102A400043100233C5E70123224639463046C047CA
:102A50000130E6D009F10109D8E700002DE9F04383
:102A600001F1430C0C46097E85B06E2917460646D7
:102A700098460C9A00F0B38022D8632936D00AD841
:102A8000002900F0B980582900F0838004F1420544
:102A900084F8421032E0642901D06929F6D1206817
:102AA0001368050603F104012AD51B681160002B89
:102AB00003DA2D225B4284F843206F480A2239E072
:102AC000732900F09D8008D86F2920D07029DDD1AE
:102AD000236843F02003236003E0752917D0782989
:102AE000D4D1782384F84530644855E01368191D23
:102AF0001B68116004F1420584F8423001238CE028
:102B00001B68116010F0400F18BF1BB2CFE71368AD
:102B10002568181D1060280601D51B6802E06806AC
:102B2000FBD51B8854486F2914BF0A2208220021B4
:102B300084F843106568A560002DC0F29580216877
:102B400021F004012160002B3DD1002D40F08E804A
:102B50006546082A0BD12368DB0708D5236962681C
:102B60009A42DEBF302305F8013C05F1FF35ACEB9E
:102B700005032361CDF800803B4603AA2146304679
:102B8000FFF7F6FE01304DD14FF0FF3005B0BDE844
:102B9000F083394884F84510136821681D1D1B68AF
:102BA00015600A060BD5CA0744BF41F02001216019
:102BB0001BB9226822F0200222601022B7E74D06DE
:102BC00048BF9BB2EFE76546B3FBF2F102FB11335E
:102BD000C35C05F8013D0B460029F5D1B9E7136840
:102BE00025686169181D106028061B6801D51960E9
:102BF00002E06A06FBD51980002323616546B9E728
:102C00001368191D11601D6862680021284600F0D4
:102C100037F808B1401B606063682361002384F8C3
:102C20004330A7E723692A4639463046C04701307A
:102C3000AAD023689B0713D4E068039B9842B8BFCF
:102C40001846A3E701234A4639463046C0470130BB
:102C50009AD00135E368039A9B1AAB42F2DCEBE7AA
:102C6000002504F11909F5E7002BACD1037884F8AD
:102C7000423004F142056CE79D330008AE33000892
:102C800001F0FF01102A2BDB10F0070F08D010F81D
:102C9000013B013A8B422DD010F0070F42B3F6D121
:102CA000F0B441EA012141EA014122F007047FF03A
:102CB00000070023F0E80256083C85EA010586EA91
:102CC000010685FA47F5A3FA87F586FA47F6A5FACD
:102CD00087F68EB9EED1F0BC01F0FF0102F00702D9
:102CE00032B110F8013B013A83EA010313B1F8D184
:102CF0000020704701387047002D06BF3546033865
:102D0000073815F0010F07D1013015F4807F02BF9D
:102D1000013015F4C03F0130F0BC0138704700BFEE
:102D200010B5431E0A44914200D110BD11F8014B69
:102D300003F8014FF7E7884210B501EB020307D80B
:102D4000421E99420AD011F8014B02F8014FF8E7F0
:102D50008342F5D98118D21AD34200D110BD13F89D
:102D6000014D01F8014DF7E738B50546002945D07A
:102D700051F8043C0C1F002BB8BFE41800F0D2F847
:102D80001F4A1368104633B9636014602846BDE8D3
:102D9000384000F0C8B8A3420CD9216862189342A9
:102DA00004BF1A685B68636004BF52182260046045
:102DB000ECE713465A680AB1A242FAD919685818C2
:102DC000A0420BD120680144581882421960DDD11D
:102DD000106852685A6001441960D7E702D90C2381
:102DE0002B60D3E7206821188A4204BF116852681B
:102DF000626004BF091821605C60C7E738BD00BF8E
:102E00000C01002070B5CD1C25F0030508350C2DF4
:102E100038BF0C25002D064601DBA94203D90C233F
:102E20003360002070BD00F07DF8214A146821460F
:102E300091B9204C23681BB9304600F063F820603C
:102E40002946304600F05EF8431C24D10C23336041
:102E5000304600F068F8E4E70B685B1B18D40B2BD6
:102E60000FD90B60CD50CC18304600F05CF804F15F
:102E70000B00231D20F00700C31AD3D05A42E250A2
:102E8000D0E78C424B6816BF636013600C46EBE7DB
:102E90000C464968CCE7C41C24F00304A04205D0CA
:102EA000211A304600F02EF80130CFD02560DBE744
:102EB0000C01002010010020F8B5074614460E460C
:102EC00021B91146BDE8F840FFF79CBF22B9FFF7D2
:102ED0004BFF25462846F8BD00F026F8A0420FD249
:102EE00021463846FFF78EFF05460028F2D03146CE
:102EF0002246FFF715FF31463846FFF735FFE9E771
:102F00003546E7E738B5064C0023054608462360FA
:102F1000FDF7FAFE431C02D1236803B12B6038BDD4
:102F2000180100207047704751F8043C181F002B0F
:102F3000BCBF0B58C01870472E2E2F737973746561
:102F40006D2F7372632F73746D333266342D686125
:102F50006C2F73746D3332663478785F68616C5FA0
:102F6000636F727465782E6300000000000000003B
:102F70000102030401020304060708092E2E2F7321
:102F8000797374656D2F7372632F73746D3332664A
:102F9000342D68616C2F73746D3332663478785FCA
:102FA00068616C5F7263632E6300000061626F7220
:102FB0007428292C2065786974696E672E2E2E007E
:102FC0006173736572745F706172616D2829206628
:102FD00061696C65643A2066696C652022257322FC
:102FE0002C206C696E652025640A000053746163AF
:102FF0006B206672616D653A0A0000002052302035
:103000003D2020253038580A000000002052312091
:103010003D2020253038580A000000002052322080
:103020003D2020253038580A00000000205233206F
:103030003D2020253038580A00000000205231324F
:10304000203D20253038580A00000000204C522036
:103050003D2020253038580A000000002050432031
:103060003D2020253038580A0000000020505352DF
:10307000203D20253038580A000000004653522FCA
:103080004641523A0A0000002043465352203D2058
:1030900020253038580A00002048465352203D2051
:1030A00020253038580A00002044465352203D2045
:1030B00020253038580A00002041465352203D2038
:1030C00020253038580A0000204D4D464152203D01
:1030D00020253038580A00002042464152203D2029
:1030E00020253038580A00004D6973630A0000003B
:1030F000204C522F4558435F52455455524E3D2067
:10310000253038580A0000005B48617264466175DA
:103110006C745D0A000000005B4275734661756C5B
:10312000745D0A005B55736167654661756C745D1B
:103130000A0000000000000000000000010203047B
:10314000060708090001020304050607000102033F
:10315000040506070708092F040506580102032D78
:1031600043003D2B0405060757656C636F6D6520B2
:10317000746F20536D61727400000000486F6D65BC
:103180002053797374656D2000000000536574202E
:1031900041646D696E2070617373000050617373D8
:1031A000776F7264207361766564000053657420E4
:1031B00047756573742070617373000053656C65A7
:1031C0006374204D6F64653A20000000303A41641A
:1031D0006D696E2020313A477565737420000000D8
:1031E000436865636B2041646D696E205061737341
:1031F00000000000313A526F6F6D312020323A5298
:103200006F6F6D3200000000333A52656365702EB7
:1032100020343A41697220434F4E2E00313A4C61BE
:103220006D702020323A46616E000000333A5245FC
:10323000540000004C616D703120537461747573DB
:103240003A0000004F4646004F4E0000313A546F9E
:1032500067204C616D7020323A52455400000000E6
:1032600046616E31205374617475733A000000003A
:10327000313A546F672046616E20323A524554000D
:10328000333A54562020202020343A52455400002E
:103290004C616D7032205374617475733A00000094
:1032A00046616E32205374617475733A00000000F9
:1032B0005456205374617475733A0000313A546F58
:1032C0006720545620323A52455400004C616D70CC
:1032D00033205374617475733A00000046616E3395
:1032E000205374617475733A0000000041697220C4
:1032F00043205374617475733A000000313A4F4EA5
:1033000020323A4F464620333A52455400000000DE
:103310005365742074656D706572617475726500B3
:1033200054656D70657261747572652073656E7435
:103330000000000057726F6E672050617373776FE3
:10334000726420005472696573206C656674203A5B
:1033500020000000546869656600000043686563EA
:103360006B20477565737420506173730000000013
:10337000313A526F6F6D312000000000323A5265D1
:1033800063657074696F6E2000000000232D302B80
:103390002000686C4C006566674546470030313256
:1033A00033343536373839414243444546003031AD
:0F33B0003233343536373839616263646566000D
:1033C0007856341280000020000000000024F40031
:1033D00014000020000000000000000000000000B9
:1033E00000000000000000000000000000000000DD
:1033F00000000000000000000000000000000000CD
:1034000000000000000000000000000000000000BC
:1034100000000000000000000000000000000000AC
:10342000000000000000000000000000000000009C
:08343000000000003254769800
:040000050800019559
:00000001FF
